:1000000014C100000C94A5110C947A110C944F119A
:100010000C9424110C94F9100C94CE100C94A31091
:100020000C94781033C1000031C100002FC10000D2
:100030002DC100002BC1000029C1000027C1000014
:1000400025C1000023C1000021C100001FC1000024
:100050001DC100000C94D81419C100000C942E107E
:1000600015C100000C944F0C0C94260C0FC100001D
:100070000DC100000BC1000009C1000007C1000054
:1000800005C1000003C1000001C10000FFC0000065
:10009000FDC00000FBC00000F9C000005AC600000F
:1000A000F5C00000F3C00000F1C00000EFC0000088
:1000B000EDC00000EBC00000E9C00000E7C0000098
:1000C000E5C00000E3C00000E1C00000DFC00000A8
:1000D000DDC00000DBC00000D9C00000D7C00000B8
:1000E000D5C000007F0F820F710F750F7B0FB90F06
:1000F000860F8A0F900F940F980F9E0FA20FA60FD6
:10010000B90FAC0FB00FB40F00002200250028007B
:100110002B002E003100340002010000050108010F
:100120000B01000020002300260029002C002F00D6
:1001300032000001000003010601090100000A0B62
:1001400002090C0D0E080703040100000000000066
:10015000000000000000000000000000000000009F
:10016000000000000000000012111000000000005C
:10017000000000000000000000000000000000007F
:10018000000000002100240027002A002D0030007C
:10019000330001010000040107010A0101021020DF
:1001A00020080810204010204080020102010804AD
:1001B0000201010204081020408080402010080441
:1001C000020180040201804020100804020108049A
:1001D00002010102040810204080010204081020DE
:1001E0004080050505050705080808080202020207
:1001F0000A0A0808040404040101010101010101C3
:100200000303030303030303040707070C0C0C0C8D
:100210000C0C0C0C02020202060606060606060676
:100220000B0B0B0B0B0B0B0BED1C11241FBECFEF9D
:10023000D1E2DEBFCDBF00E00CBF13E0A0E0B2E032
:10024000E6E2F7E400E00BBF02C007900D92A83988
:10025000B107D9F727E0A8E9B3E001C01D92A238A1
:10026000B207E1F711E0C5E1D1E000E006C0219757
:100270000109802FFE010E948220C431D10780E055
:100280000807A9F70E94411A0C949123B9CE85ED75
:100290008093BC008091BC0084FDFCCF10920505CA
:1002A00008954091DF04262F30E0240F311D2132C4
:1002B0003105DCF4209105052430C9F4FC0180E00F
:1002C00090E0861758F43091DF042191DC01A354AB
:1002D000BB4FA30FB11D2C930196F3CF8091DF0488
:1002E000680F6093DF0480E0089581E0089582E064
:1002F000089508958FEF9FEF08958FEF9FEF089572
:100300008091BC0490E09195819591090895CF93D7
:10031000DF931F921F92CDB7DEB7CB01642F4983C5
:100320005A83BFDF4981842F5A81952F0F900F90F8
:10033000DF91CF910895CF93DF931F92CDB7DEB7B2
:10034000698361E0CE010196ACDF81E090E00F901F
:10035000DF91CF910895089580E090E00895EF92A5
:10036000FF921F93CF93DF93182FD8E0C0E0612F47
:10037000661F6627661F8BE00E94AD0C8CE00E9412
:10038000850CCC0F7C01EC2ACE2D61E08DE00E9423
:10039000AD0C60E08DE00E94AD0C110FD15039F72B
:1003A0008E2DDF91CF911F91FF90EF9008958C01DA
:1003B000F89461E08DE00E94BA0FC0E0D0E0C01771
:1003C000D107E4F461E08DE00E94AD0C80E899EA89
:1003D000A3E0B0E000000197A109B109D9F760E0FE
:1003E0008DE00E94AD0C80E899EAA3E0B0E0000047
:1003F0000197A109B109D9F72196E1CF40E05AE66A
:1004000068E170E000004150510961097109D1F7BC
:10041000D4CF0F931F93CF93DF931F921F92CDB72B
:10042000DEB789839A830E943D1289819A810E9456
:10043000551D8C010E94DA140115110519F482E092
:1004400090E0B5DFC8010F900F90DF91CF911F9121
:100450000F91089581E090E0AADFCF92DF92EF92B2
:10046000FF920F931F93CF93DF9300D01F921F92A1
:10047000CDB7DEB78091330590913405892B09F40F
:10048000C2C18FEF80934707809348074EE0F42E58
:100490000E943416837020912B0530912C05811118
:1004A00062C180912D0590912E058217930709F462
:1004B0006FC02EE0289F8001299F100D1124F801A4
:1004C000E25DFB4FA485B585B0935207A093510719
:1004D000408151816281738120E030E02A173B071F
:1004E0007CF4F901EA5BF84F7F01F901E00FF11F9D
:1004F000E25DFB4FD480F701D3822F5F3F4FEECFF9
:1005000001968A30910529F410922E0510922D053E
:1005100004C090932E0580932D05DB01CA01882726
:100520009927AA27BC712AE1B595A7959795879534
:100530002A95D1F780934607DB01CA018827BB279C
:10054000892F9A2FAB2FBB27A7FDBA95809353070E
:1005500090935407A0935507B093560740934707CD
:10056000AC01BD0141505109610971094F3F5F4E16
:100570006105710568F4809348078827A170BB273F
:100580008093530790935407A0935507B093560751
:1005900086E497E09093BB048093BA0400913305FE
:1005A000109134051D821C820115110509F452DFDA
:1005B00090E07801F8E0EF0EF11C0FB6F8940F927E
:1005C000F801228D838D281708F078C0448D4111E1
:1005D00048C080819181892B09F05CC0F801E280DC
:1005E000F380E114F10411F480E037C080918F05AD
:1005F00090919005E816F906D1F6F70182A18823BB
:10060000B1F2815082A3268991A1291769F3811142
:10061000EBCF6701F2E0CF0ED11CC6010E94AB12F6
:10062000F70191A1968B492F50E024E030E0241B84
:10063000350B3587248780918D05891710F49093A9
:100640008D0529E0249FC001259F900D1124B6013E
:1006500087599A4F0E94CE1281E0F80113821282CC
:100660001AC050E06AEB74E0F801848195810E9421
:10067000A220F801248D84819581820F911D95839C
:100680008483228133818217930720F080819181B6
:100690009583848380E0F801928D9F5F928F91898A
:1006A000992349F0C80141960E94EF12813051F41C
:1006B0000E94431207C0882329F0FACF2C813D8184
:1006C000232B19F40F900FBE9EC0911109C0809189
:1006D0003C05898380912F05909130059B838A8307
:1006E0000F900FBE0E943D120FB6F8940F92F801C2
:1006F000858D8F3F09F4158EF801868D8F3F09F4A3
:10070000168E0F900FBEBE016C5F7F4FCE0101961B
:100710000E940112811121C00FB6F8940F92F801C6
:10072000928D0F900FBE838D981311C06C817D81C7
:10073000C7010E947213C8010E9430130E94DA148C
:10074000882311F091E039CF0E944312FBCFC801FA
:100750000E9430130E94DA14F5CFC8010E943013B2
:100760000E94DA1450C0F29E8001F39E100D1124F5
:100770000E5C1B4F0E94341680FF06C081E60E946B
:100780004B1640E061E007C081FF08C081E70E948E
:100790004B1640E062E08CE20E94C91620913406BC
:1007A000A5E3B6E0F80130E0CF01801B910B821782
:1007B00093071CF48D918193F7CF80912B05909135
:1007C0002C05F89EF001F99EF00D1124E25DFB4F1F
:1007D000358724874091300650913106609132066A
:1007E00070913306408351836283738301969093A3
:1007F0002C0580932B050A9709F04ACE10922C0500
:1008000010922B0545CE0F900F900F900F900F90E8
:10081000DF91CF911F910F91FF90EF90DF90CF90DC
:100820000895CF93DF93CDB7DEB728970FB6F8942E
:10083000DEBF0FBECDBF0FB6F8940F9280912F058B
:10084000909130050F900FBE9F838E8354E0252E2C
:10085000312C6AE0862E912C7CE6A72E72E0B72E12
:1008600049E0742E009133051091340501151105EE
:10087000E9F39D828C8280E0780121E1E20EF11C97
:100880000FB6F8940F92F801928D992309F46FC076
:10089000448D4423B9F050E086819781840F951FE1
:1008A00097838683228133818217930720F080818A
:1008B000918197838683F801668177818CE294E049
:1008C0000E94A220F801828D8150828F80819181C7
:1008D000892BA1F480918F0590919005892B39F097
:1008E000E0918F05F091900582A18F5F82A38091A6
:1008F0008F0590919005F80193838283F80180859C
:10090000882341F0C80108960E94EF12813011F44B
:100910000E9443120F900FBE00912C0410912D04E1
:10092000F801C080D12CE12CF12C2AE1CC0CDD1C8B
:10093000EE1CFF1C2A95D1F785859685A785B08981
:10094000BA2FA92F982F8827C80ED91EEA1EFB1E82
:100950008181C80ED11CE11CF11CC114FEEEDF0622
:10096000FEEFEF06F8E1FF0609F0AEC07AC12C8178
:100970003D81232B19F40F900FBE74CF811109C054
:1009800080913C05898380912F05909130059B8350
:100990008A830F900FBE0E943D120FB6F8940F92FB
:1009A000F801858D8F3F09F4158EF801868D8F3FF4
:1009B00009F4168E0F900FBEBE016C5F7F4FCE0103
:1009C00001960E940112811179C00FB6F8940F921E
:1009D000F801828D0F900FBE81116AC080819181D4
:1009E000892B09F054C00FB6F8940F92C280D380BF
:1009F000C114D10409F449C0F6018689E0918F053C
:100A0000F09190059689891708F03FC0F60124857A
:100A1000358537FD0BC0E0918F05F09190059689E3
:100A20009101291B3109F60135872487789EC00181
:100A3000112487599A4FF6012285338528173907E3
:100A4000E9F42601F2E04F0E511CC2010E94AB12E4
:100A5000E0918F05F09190058689F601868B909143
:100A60008D05981710F480938D05789EC001112490
:100A7000B20187599A4F0E94CE1207C0E0918F05AC
:100A8000F09190058689F601868B0F900FBE6C81E0
:100A90007D81C7010E947213C8010E9430130E9419
:100AA000DA14882311F081E0EBCE0E944312FBCFD1
:100AB000C8010E9430130E94DA14F5CFC8010E94C9
:100AC00030130E94DA14CECEF1E0CF16FEEEDF0630
:100AD000FEEFEF06F8E1FF06F4F5C11423E0D206BD
:100AE00020EFE2062CE0F20609F47CC0C11484E099
:100AF000D80680EFE8068CE0F80609F0BAC0F801E5
:100B0000F781F887F801668170E080E090E00E944C
:100B10005E1F20E030E040E05EE30E94EA1F2B0110
:100B20003C012885F0E22F9FB0011124072E000C14
:100B3000880B990B0E945E1F9B01AC01C301B2019F
:100B40000E94CC1E609315047093160480931704C2
:100B5000909318048EC0C11497EFD9069EEFE90652
:100B600098E1F90609F452C0E3E0CE16E8EFDE069C
:100B7000EEEFEE06E8E1FE06A1F0C114FFEEDF069F
:100B8000FEEFEF06F8E1FF0609F073C0F801868179
:100B9000F4E08F9FC00111249093200480931F04E0
:100BA00068C0F8018781608570E0762F6627680F3E
:100BB000711D072E000C880B990B0E945E1F20E010
:100BC00030E040E05DE30E94EA1F20E030E848E8C2
:100BD00053E40E94CB1E0E94301F70931204609356
:100BE000110447C0F801648170E080E090E00E9449
:100BF0005E1F2DEC3CEC4CEC5EE30E94EA1F0E9471
:100C0000301F709314046093130433C0F80167819C
:100C100070E080E090E00E945E1F2DEC3CEC4CE424
:100C20005DE30E94EA1F2B013C01F801608570E042
:100C300080E090E00E945E1F20E030E04CE451E450
:100C40000E94EA1F9B01AC01C301B2010E94CC1EAD
:100C50006093190470931A0480931B0490931C04EE
:100C600008C0F801838190E0889790931E048093D8
:100C70001D0420E141EC53E0C701B6010E948C1E27
:100C800081EC93E00E94821E86E492E00E9433167B
:100C900081EC93E00E9433168AE692E00E943316BC
:100CA000E0912C04F0912D0482811F928F93818119
:100CB0001F928F9380811F928F9386858F93858556
:100CC0008F938AE492E09F938F9381EC93E09F93BC
:100CD0008F930E94C82081EC93E00E94331685E632
:100CE00092E00E9433160FB6F894DEBF0FBECDBF60
:100CF000E12CF12C01EC13E0E0912C04F0912D0497
:100D000083859485E816F906CCF4EE0DFF1D8381EA
:100D10001F928F93BF92AF921F930F930E94C82090
:100D200081EC93E00E9433169FEFE91AF90A0F90C5
:100D30000F900F900F900F900F90DECF80E593E013
:100D40000E94271662E370E0CE0106960E944B15C2
:100D500087CD1F920F920FB60F9211240BB60F92F0
:100D60002F933F934F935F936F937F938F939F93B3
:100D7000AF93BF93EF93FF938091B900887F803644
:100D800009F49CC068F5883209F45BC090F48031A6
:100D900009F454C038F4882309F4F6C0883009F403
:100DA0004DC0F5C0883109F44CC0803209F45DC0F3
:100DB000EEC0803409F468C048F4803309F455C0AB
:100DC000883309F0E4C080930405D8C0803509F465
:100DD0004FC0883509F45DC0883409F0D8C0D6C04A
:100DE000883909F4C7C0A8F4883709F467C038F413
:100DF000883609F463C0803709F460C0C8C08838F9
:100E000009F4B8C0803909F45FC0803809F0BFC068
:100E10005BC0803B09F486C038F4803A09F466C0B0
:100E2000883A09F47FC0B3C0803C09F4A7C0883C6D
:100E300009F4A4C0883B09F48AC0A9C080912A059E
:100E400010C09091290580912805981770F5E091C0
:100E5000290581E08E0F80932905F0E0E85FFA4FC5
:100E600080818093BB0085EC86C0809304058EC092
:100E7000E091290581E08E0F809329058091BB00C8
:100E8000F0E0E85FFA4F8083909129058091280572
:100E90006EC0E091290581E08E0F80932905809135
:100EA000BB00F0E0E85FFA4F808380910705811175
:100EB0006DC081E08093060584EA61C083E0809381
:100EC000050510920305CFCF80910305803208F00D
:100ED00051C0E091030581E08E0F8093030580915E
:100EE000BB00F0E0ED51FB4F8083BDCF85EC8093DC
:100EF000BC001092050580910305803230F4E0912A
:100F00000305F0E0ED51FB4F10826091030570E0A6
:100F1000E091E104F091E20483EE94E019951092DF
:100F2000030535C084E0809305051092E00410921B
:100F3000DF04E091DD04F091DE0419958091DF0477
:100F4000811105C081E08093DF041092BD04E0911F
:100F5000E00481E08E0F8093E004F0E0E354FB4F67
:100F600080818093BB009091E0048091DF0498170A
:100F700008F479CF85E88093BC0009C085EC8093A4
:100F8000BC001092050503C01092040580D9FF91A2
:100F9000EF91BF91AF919F918F917F916F915F91F1
:100FA0004F913F912F910F900BBE0F900FBE0F905E
:100FB0001F901895CF92DF92EF92FF920F931F939D
:100FC000CF93DF93EC016B0160E08C81C6D47E018E
:100FD00086E0E80EF11C00E010E00C151D0584F41D
:100FE000C8018F739927892B41F08FEFB8D9F7018A
:100FF00081937F010F5F1F4FF0CF8D8186D4F3CF98
:1010000061E08C81AAD48D8180D40197E1F3DF91D6
:10101000CF911F910F91FF90EF90DF90CF900895A7
:10102000CF93DF93EC0162E070E0C4DF8E819F819B
:10103000DF91CF910895AF92BF92CF92DF92EF925E
:10104000FF920F931F93CF93DF931F92CDB7DEB71D
:101050007C01B62E6A0160E0FC01848179837DD435
:101060008C2D7DD98D2D7BD90B2D7981172FA12C1E
:10107000B12CAC14BD0489F0C5018F739927892B5D
:1010800021F4F701858141D4FACFF80181918F01D4
:1010900066D9FFEFAF1ABF0AECCF61E0F701848198
:1010A0000F90DF91CF911F910F91FF90EF90DF9004
:1010B000CF90BF90AF9051C4CF93DF93CDB7DEB741
:1010C0002C970FB6F894DEBF0FBECDBF0FB6F894C5
:1010D0000F9280912F05909130050F900FBE988749
:1010E0008F83ECE38E2E912CF0E84F2EFEEE5F2ED8
:1010F000F6E36F2E712CABE9CA2EA2E0DA2EB8E926
:10110000AB2EB3E0BB2E12E0212E13E0312E2FB711
:10111000F89460913D0570913E0580913F05909156
:1011200040052FBF2FB7F894E0903D05F0903E05A5
:1011300000913F0510914005E986FA860B871C87D0
:101140002FBF2FB7F894E0903D05F0903E05009139
:101150003F05109140052FBF28EE33E040E050E0FE
:101160000E946020C901B4010E944D209F938F937B
:1011700069857A858B859C8520E63AEE40E050E0D3
:101180000E946020C901B4010E944D209F938F935B
:10119000C801B701A30192010E946020C901B401F6
:1011A0000E944D209F938F93A0E7B2E0BF93AF932F
:1011B000ABEAB3E0BF93AF930E94C820F8940E94BB
:1011C000631700E711E01A8309831C821B821E82C9
:1011D0001D8246E050E0BE016F5F7F4F80E496E0E5
:1011E0002ADF80E496E01CDF8BEAE82E83E0F82E0D
:1011F0000FEF1FEF2FEF30E04CED50E066E970E0AD
:101200008DE090E00E94BB1796E8E92E92E0F92E5F
:1012100000E017ED2FEF30E042EC51E060E971E0C3
:101220008EE090E00E94BB1785E590E00E949B173E
:1012300080911F04909120041F921F929F938F937F
:10124000DF92CF92BF92AF920E94C82028E9E22E8F
:1012500023E0F22E00E017ED2FEF30E04CE850E0F5
:1012600068EA72E081E190E00E94BB173EE9E32E5C
:1012700032E0F32E00E91EEE20E930E040E550E0D8
:1012800068EA72E08DE090E00E94BB1786E590E08E
:101290000E949B176091190470911A0480911B049D
:1012A00090911C040E94301F9F938F937F936F93A4
:1012B000DF92CF92BF92AF920E94C82048E9E42EFD
:1012C00043E0F42E00E017ED2FEF30E04CE850E063
:1012D0006AEE71E081E190E00E94BB175FEAE52EC3
:1012E00052E0F52E00E91EEE20E930E040E550E046
:1012F0006AEE71E08DE090E00E94BB1787E590E018
:101300000E949B1780911104909112041F921F92CA
:101310009F938F93DF92CF92BF92AF920E94C8208B
:101320000FB6F894DEBF0FBECDBF68E9E62E63E0CE
:10133000F62E00E017ED2FEF30E04CE850E06CE2C5
:1013400071E081E190E00E94BB177BEBE72E72E039
:10135000F72E00E91EEE20E930E040E550E06CE2B7
:1013600071E08DE090E00E94BB1788E590E00E945C
:101370009B17609115047091160480911704909149
:1013800018040E94301F9F938F937F936F93DF9277
:10139000CF92BF92AF920E94C820E8E9EE2EE3E020
:1013A000FE2E00E017ED2FEF30E04CE850E06EE647
:1013B00070E081E190E00E94BB17FBECEF2EF2E0C1
:1013C000FF2E00E91EEE20E930E040E550E06EE639
:1013D00070E08DE090E00E94BB1789E590E00E94EC
:1013E0009B17A7EDEA2EA2E0FA2E00E017ED2FEFF3
:1013F00030E044E551E06EE670E081E190E00E946B
:10140000BB17BBEDEB2EB2E0FB2E00E91EEE20E990
:1014100030E048E151E06EE670E08DE090E00E943F
:10142000BB178AE590E00E949B1780911D04909164
:101430001E041F921F929F938F93DF92CF92BF92B1
:10144000AF920E94C82018E9E12E13E0F12E00E0CF
:1014500017ED2FEF30E044E551E06CE271E081E1FF
:1014600090E00E94BB170AEEE02E02E0F02E00E9A9
:101470001EEE20E930E048E151E06CE271E08DE0E1
:1014800090E00E94BB178BE590E00E949B17809133
:101490001304909114041F921F929F938F93DF92D5
:1014A000CF92BF92AF920E94C82088E9E82E83E0D5
:1014B000F82E00E017ED2FEF30E044E551E06AEE42
:1014C00071E081E190E00E94BB179AEFE92E92E073
:1014D000F92E00E91EEE20E930E048E151E06AEE25
:1014E00071E08DE090E00E94BB178CE590E00E94D7
:1014F0009B1727EDE22E22E0F22E00E017ED2FEFF2
:1015000030E044E551E068EA72E081E190E00E9459
:10151000BB1739E0E32E33E0F32E00E91EEE20E99D
:1015200030E048E151E068EA72E08DE090E00E942E
:10153000BB173A82298242E050E0BE016F5F7F4FC5
:1015400080E496E078DD6AE070E080E496E032DDE9
:101550008091490690E0982F882720914806822B99
:101560009093AA038093A90380914B0690E0982F53
:10157000882720914A06822B9093A8038093A70383
:1015800080914D0690E0982F882720914C06822B61
:101590009093A6038093A50380914F0690E0982F27
:1015A000882720914E06822B9093A4038093A30357
:1015B0000FB6F894DEBF0FBECDBF8F35910549F44D
:1015C0008091A1039091A20301969093A20380932E
:1015D000A1030E947F17789464E670E0CE0107961D
:1015E0000E944B1594CDCF92DF92EF92FF920F9312
:1015F0001F93CF93DF936C017A018B01C0E0D0E0A1
:10160000CE15DF0589F0D8016D918D01D601ED91E0
:10161000FC910190F081E02DC6011995892B11F400
:101620007E0102C02196ECCFC701DF91CF911F91BF
:101630000F91FF90EF90DF90CF900895FC01538DB4
:10164000448D252F30E0842F90E0821B930B54179C
:1016500010F0CF96089501970895FC01918D828D29
:10166000981761F0828DDF01A80FB11D5D968C91F6
:10167000928D9F5F9F73928F90E008958FEF9FEF01
:101680000895FC01918D828D981731F0828DE80FBD
:10169000F11D858D90E008958FEF9FEF0895FC0177
:1016A000918D228D892F90E0805C9F4F821B910944
:1016B0008F739927089582E995E0F1DF21E0892B66
:1016C00009F420E0822F0895FC01848DDF01A80F2A
:1016D000B11DA35ABF4F2C91848D90E001968F735A
:1016E0009927848FA689B7892C93A089B1898C9179
:1016F00080648C93938D848D981306C00288F3893F
:10170000E02D80818F7D80830895EF92FF920F936B
:101710001F93CF93DF93EC0181E0888F9B8D8C8D9D
:10172000981305C0E889F989808185FD23C0F62ECC
:101730000B8D10E00F5F1F4F0F731127E02E8C8D64
:10174000E8120BC00FB607FCFACFE889F98980814F
:1017500085FFF5CFCE01B8DFF2CF8B8DFE01E80F0C
:10176000F11DE35AFF4FF0820B8FEA89FB898081DC
:10177000806207C0EE89FF896083E889F9898081EA
:101780008064808381E090E0DF91CF911F910F9181
:10179000FF90EF900895CF93DF93EC01888D88231D
:1017A000C1F0EA89FB89808185FD05C0A889B989D6
:1017B0008C9186FD0EC00FB607FCF5CF808185FFAA
:1017C000F2CFA889B9898C9185FFEDCFCE017CDF5E
:1017D000E8CFDF91CF91089580E090E0892B19F058
:1017E0006ADF811125C080E090E0892B41F080E024
:1017F00090E0892B21F00E94000081111CC080E044
:1018000090E0892B41F080E090E0892B21F00E944C
:101810000000811113C080E090E0892BA1F080E0EE
:1018200090E0892B81F00E94000081110AC0089588
:101830000E940000D8CF0E940000E1CF0E9400006B
:10184000EACF0C94000008950E949E201F920F92F0
:101850000FB60F9211240BB60F922F933F934F9315
:101860005F936F937F938F939F93AF93BF93EF9308
:10187000FF9382E995E028DFFF91EF91BF91AF914F
:101880009F918F917F916F915F914F913F912F9198
:101890000F900BBE0F900FBE0F901F9018951F92C8
:1018A0000F920FB60F9211240BB60F922F938F93B6
:1018B0009F93EF93FF93E091A205F091A3058081A0
:1018C000E091A805F091A90582FD12C09081809158
:1018D000AB058F5F8F732091AC05821751F0E091BB
:1018E000AB05F0E0EE56FA4F958F8093AB0501C043
:1018F0008081FF91EF919F918F912F910F900BBE5F
:101900000F900FBE0F901F901895CF93DF93282F45
:1019100030E0F901E45CFE4F8491F901E456FE4F9A
:10192000D491F901EE51FE4FC491CC2389F081117D
:10193000CBD2EC2FF0E0EE0FFF1FEE5DFE4FA59136
:10194000B491EC91ED2381E090E021F480E002C0BD
:1019500080E090E0DF91CF9108951F93CF93DF93C4
:10196000282F30E0F901E45CFE4F8491F901E45640
:10197000FE4FD491F901EE51FE4FC491CC23C1F03A
:10198000162F8111A1D2EC2FF0E0EE0FFF1FE85FC0
:10199000FE4FA591B4918FB7F894111105C09C9199
:1019A000ED2FE095E92302C0EC91ED2BEC938FBF76
:1019B000DF91CF911F910895EF92FF921F93CF93E4
:1019C000DF93D8E0C0E01FEF612F661F6627661F18
:1019D0008BE0C3DF8CE099DFCC0F7C01EC2ACE2DAD
:1019E00061E08DE0BADF60E08DE0B7DF110FD1502C
:1019F00059F78E2DDF91CF911F91FF90EF900895B1
:101A00003FB7F8948091460590914705A09148050D
:101A1000B091490526B5A89B05C02F3F19F0019646
:101A2000A11DB11D3FBFBA2FA92F982F8827820F64
:101A3000911DA11DB11DBC01CD0142E0660F771FB4
:101A4000881F991F4A95D1F7089508950F931F9302
:101A5000CF93DF938C01FB01808191818F3F2FEF2A
:101A6000920721F4E801AF81B8850EC0D801139622
:101A700012962D913C911397E90148815981841761
:101A8000950710F0D901F4CF12968D919C91139780
:101A900093838283EC01FD83EC83B583A483139647
:101AA000FC93EE93129711870087F80180818F5F76
:101AB0008083DF91CF911F910F910895CF93DF9392
:101AC000E0918F05F09190059383828320912F05FB
:101AD000309130058217930768F460918F057091FB
:101AE000900580914A0590914B056E5F7F4FDF9185
:101AF000CF91ACCFEC0160918F05709190058091F2
:101B00004C0590914D056E5F7F4FA0DF80913105B0
:101B100090913205C817D90720F4D0933205C093AD
:101B20003105DF91CF9108950F931F93CF93DF93EA
:101B300000D0CDB7DEB78C0184E09AE09A83898328
:101B40006B8343E050E0BE016F5F7F4FC80173DAE3
:101B5000C80166DA0F900F900F90DF91CF911F911F
:101B60000F910895CF92DF92EF92FF920F931F9300
:101B7000CF93DF93CDB7DEB7C650D1400FB6F89400
:101B8000DEBF0FBECDBF6C0180E09AE09A838983EF
:101B90006B834C832D833E837901A901B801CE016B
:101BA00007960E94A22047E050E04C0F5D1F4E0DAB
:101BB0005F1DBE016F5F7F4F461B570BC6013BDAAF
:101BC000C6012EDACA5FDE4F0FB6F894DEBF0FBE35
:101BD000CDBFDF91CF911F910F91FF90EF90DF90DC
:101BE000CF9008956F927F928F929F92AF92BF9203
:101BF000CF92DF92EF92FF920F931F93CF93DF93D9
:101C0000CDB7DEB75C017A018DB69EB6CA010596E6
:101C10004DB75EB7481B590B0FB6F8945EBF0FBEA9
:101C20004DBF8DB79EB701966C0182E0EDB7FEB750
:101C300081838AE0F60181836283E3826DB67EB69A
:101C4000F6E06F0E711CF601F482A701B901C30121
:101C50000E94A220A3014E0D5F1D4C195D09B60123
:101C6000C501E9D964E070E0C501A4D9F501818519
:101C700090E0982F88272085822BF801918380831C
:101C8000F501868197810FB6F8949EBE0FBE8DBE7A
:101C9000DF91CF911F910F91FF90EF90DF90CF9048
:101CA000BF90AF909F908F907F906F9008954F92CC
:101CB0005F926F927F928F929F92AF92BF92CF92DC
:101CC000DF92EF92FF920F931F93CF93DF93CDB7E5
:101CD000DEB75C016A018DB69EB6CA0107964DB7A4
:101CE0005EB7481B590B0FB6F8945EBF0FBE4DBFD1
:101CF0008DB79EB701963C0181E0EDB7FEB78183B9
:101D00008AE0F30181836283C382D48225834DB646
:101D10005EB6F8E04F0E511CF3013683A601B80100
:101D2000C2010E94A220A2014C0D5D1D4619570957
:101D3000B301C50180D960E0F50184810EDEF501B3
:101D40008581E3DD892BD9F337DEC82E35DED12C32
:101D5000D82A370102E010E07601F2E0EF0EF11C24
:101D60000E151F0580F4C8018F739927892B39F050
:101D700023DEF30181933F010F5F1F4FF1CFF50188
:101D80008581C3DDF3CF61E0F5018481E6DDF501F6
:101D90008581BBDD0197D9F3C6010FB6F8949EBECD
:101DA0000FBE8DBEDF91CF911F910F91FF90EF90ED
:101DB000DF90CF90BF90AF909F908F907F906F906B
:101DC0005F904F90089510924405E0918F05F09137
:101DD00090050788F08DE02D80819181A281B381EB
:101DE000853A954AA54AB54AE9F484819581A68148
:101DF000B781853A954AA54AB54AA1F4808591856F
:101E0000A285B385853A954AA54AB54A59F4848591
:101E10009585A685B785853A954AA54AB54A11F4B0
:101E200099E011C080918F059091900580918F0568
:101E30009091900583E090E00E94D70180918D05FC
:101E4000815080938D05E0918D059E9FF0011124B6
:101E5000E759FA4F8081811106C080918D0581116B
:101E6000EDCF0E942A0280918D0590E049E0489FC5
:101E70009001499F300D1124F901E759FA4FA181D2
:101E8000B28112960D90BC91A02DB283A1832459EA
:101E90003A4FA217B30731F412962D913C91139744
:101EA0003283218329E0289FF001299FF00D11241E
:101EB000E759FA4F0180F281E02D86819781909356
:101EC000900580938F05089590E0FC013197E231F1
:101ED000F10508F04EC08827EE58FF4F8F4F0C9445
:101EE0008220809180008F7703C0809180008F7D59
:101EF00080938000089580918000877FF9CF84B51A
:101F00008F7702C084B58F7D84BD08958091B00025
:101F10008F7703C08091B0008F7D8093B0000895CB
:101F2000809190008F7707C0809190008F7D03C0D3
:101F300080919000877F8093900008958091A00009
:101F40008F7707C08091A0008F7D03C08091A00093
:101F5000877F8093A0000895809120018F7707C02C
:101F6000809120018F7D03C080912001877F809325
:101F700020010895CF93DF9390E0FC01E456FE4FDB
:101F80002491FC01EE51FE4F8491882361F190E091
:101F9000880F991FFC01EE57FE4FC591D491FC01AB
:101FA000E85FFE4FA591B491611109C09FB7F89405
:101FB0008881209582238883EC912E230BC0623088
:101FC00061F49FB7F8943881822F809583238883AA
:101FD000EC912E2B2C939FBF06C08FB7F894E8810D
:101FE0002E2B28838FBFDF91CF9108958F929F92E0
:101FF000AF92BF92CF92DF92EF92FF926B017C0182
:10200000FFDC4B015C01C114D104E104F104E9F0EF
:10201000F7DCDC01CB0188199909AA09BB09883EC4
:102020009340A105B10578F321E0C21AD108E10877
:10203000F10888EE880E83E0981EA11CB11CC11423
:10204000D104E104F10421F7DECFFF90EF90DF909F
:10205000CF90BF90AF909F908F9008951F920F9256
:102060000FB60F9211242F933F938F939F93AF93AB
:10207000BF9380913D0590913E05A0913F05B091A1
:1020800040053091450523E0230F2D3720F40196BC
:10209000A11DB11D05C026E8230F0296A11DB11D8B
:1020A0002093450580933D0590933E05A0933F0501
:1020B000B09340058091460590914705A091480551
:1020C000B09149050196A11DB11D809346059093DD
:1020D0004705A0934805B0934905BF91AF919F91E3
:1020E0008F913F912F910F900FBE0F901F901895D9
:1020F0001F920F920FB60F9211240BB60F922F93CF
:102100003F934F935F936F937F938F939F93AF937F
:10211000BF93EF93FF93E0910E02F0910F02199598
:10212000FF91EF91BF91AF919F918F917F916F91AF
:102130005F914F913F912F910F900BBE0F900FBE6B
:102140000F901F9018951F920F920FB60F921124A7
:102150000BB60F922F933F934F935F936F937F93A1
:102160008F939F93AF93BF93EF93FF93E0910C02F4
:10217000F0910D021995FF91EF91BF91AF919F9151
:102180008F917F916F915F914F913F912F910F9020
:102190000BBE0F900FBE0F901F9018951F920F92BD
:1021A0000FB60F9211240BB60F922F933F934F93BC
:1021B0005F936F937F938F939F93AF93BF93EF93AF
:1021C000FF93E0910202F09103021995FF91EF91C4
:1021D000BF91AF919F918F917F916F915F914F913F
:1021E0003F912F910F900BBE0F900FBE0F901F903D
:1021F00018951F920F920FB60F9211240BB60F92E3
:102200002F933F934F935F936F937F938F939F93FE
:10221000AF93BF93EF93FF93E0910002F09101021F
:102220001995FF91EF91BF91AF919F918F917F9100
:102230006F915F914F913F912F910F900BBE0F9037
:102240000FBE0F901F9018951F920F920FB60F920E
:1022500011240BB60F922F933F934F935F936F937D
:102260007F938F939F93AF93BF93EF93FF93E091EF
:102270000A02F0910B021995FF91EF91BF91AF9176
:102280009F918F917F916F915F914F913F912F918E
:102290000F900BBE0F900FBE0F901F9018951F92BE
:1022A0000F920FB60F9211240BB60F922F933F93FC
:1022B0004F935F936F937F938F939F93AF93BF934E
:1022C000EF93FF93E0910802F09109021995FF91B5
:1022D000EF91BF91AF919F918F917F916F915F919E
:1022E0004F913F912F910F900BBE0F900FBE0F900B
:1022F0001F9018951F920F920FB60F9211240BB6D4
:102300000F922F933F934F935F936F937F938F938E
:102310009F93AF93BF93EF93FF93E0910602F091E9
:1023200007021995FF91EF91BF91AF919F918F9106
:102330007F916F915F914F913F912F910F900BBEC5
:102340000F900FBE0F901F9018951F920F920FB60F
:102350000F9211240BB60F922F933F934F935F93DD
:102360006F937F938F939F93AF93BF93EF93FF935D
:10237000E0910402F09105021995FF91EF91BF9150
:10238000AF919F918F917F916F915F914F913F910D
:102390002F910F900BBE0F900FBE0F901F901895AE
:1023A0008EBD00000DB407FEFDCF8EB508950F93CE
:1023B0001F93CF93DF938C01EB01FB010190002071
:1023C000E9F73197E61BF70BEF3FF10551F048F0C5
:1023D0004FEF50E00E94B920F801E150FF4F10820A
:1023E00002C00E94B220FE0101900020E9F7CF0157
:1023F0008C1B9D0B800F911FDF91CF911F910F912F
:102400000895FC01892B11F40E942A0261157105BF
:10241000D9F30FB6F8940F9240912F0550913005E3
:10242000DB018D919C918F3FBFEF9B0701F1B09134
:102430003C05A08121813281BA1719F04217530758
:10244000C0F4DA01A21BB30BA817B90790F4241B40
:10245000350B820F931FDB018D939C9380913C057C
:10246000808380912F05909130059283818380E055
:1024700001C081E00F900FBE0895809142058F5FEB
:102480008093420508950F920FB6F8940F920BB601
:102490000F920CB60F921F9211242F923F924F92DF
:1024A0005F926F927F928F929F92AF92BF92CF92E4
:1024B000DF92EF92FF920F931F932F933F934F93CF
:1024C0005F936F937F938F939F93AF93BF93CF93BC
:1024D000DF93EF93FF93A0918F05B09190050DB618
:1024E0000D920EB60D9280914205882321F081E075
:1024F0008093440501C067DCA0918F05B0919005E1
:10250000CD91CDBFDD91DEBFFF91EF91DF91CF91F6
:10251000BF91AF919F918F917F916F915F914F91FB
:102520003F912F911F910F91FF90EF90DF90CF90EF
:10253000BF90AF909F908F907F906F905F904F90E3
:102540003F902F901F900F900CBE0F900BBE0F90DE
:102550000FBE0F900895CF93DF93FC01A085B18546
:102560008281938124813581EC013D832C83C48158
:10257000D5819B838A8311968D919C9112978E179A
:102580009F0721F41296DC93CE9311971186108643
:102590008C9181508C93DF91CF910895CF93DF93ED
:1025A0009C01FB01DC011196CD91DC911297D38344
:1025B000C2838C819D81958384838C819D81DC0184
:1025C00013967C936E9312977D836C83318720875B
:1025D000F90180818F5F8083DF91CF9108950F9300
:1025E0001F93CF93DF93DC011596ED91FC91169725
:1025F000C681D781209711F40E942A028E01045FC0
:102600001F4FC801A8DF80914205811113C00A50F5
:102610001109C801A0DF9E8980918D05891710F4EA
:1026200090938D05B9E09B9FC0011124B801875993
:102630009A4F03C0B80180E695E0B0DFE0918F05C6
:10264000F09190059E898689891720F481E0809316
:10265000440501C080E0DF91CF911F910F91089553
:10266000FF920F931F93CF93DF93EC010FB6F89473
:102670000F928C010F5E1F4FFF24F3949E8D19164D
:1026800064F48989882349F0C801A9DF8111F09297
:1026900044059E8D91509E8FF1CF8FEF8E8F0F90BE
:1026A0000FBE0FB6F8940F928E01085F1F4FFF24E4
:1026B000F3949D8D191664F48885882349F0C80128
:1026C0008EDF8111F09244059D8D91509D8FF1CF49
:1026D0008FEF8D8F0F900FBEDF91CF911F910F91D4
:1026E000FF900895CF93DF93EB01009711F40E94C0
:1026F0002A0220918F0530919005B901645F7F4FC8
:10270000A5D980918F0590919005029624DFCF3F47
:102710008FEFD80759F460918F05709190056E5F27
:102720007F4F8EE495E0DF91CF9138CF80912F05D8
:10273000909130058C0F9D1FDF91CF91BFC9CF9233
:10274000DF92EF92FF920F931F93CF93DF938091CD
:1027500042058111AEC080912F0590913005019600
:102760009093300580932F05E0902F05F090300571
:10277000E114F104B9F5E0914C05F0914D0580812B
:1027800081110E942A0280914C0590914D05209163
:102790004A0530914B0530934D0520934C0590939D
:1027A0004B0580934A0580913C058F5F80933C05E3
:1027B000E0914C05F0914D058081811103C08FEFB0
:1027C0009FEF0CC0E0914C05F0914D050580F6811E
:1027D000E02D0680F781E02D828193819093320570
:1027E000809331058091310590913205C0E0E81663
:1027F000F90608F44CC0D9E0E0914C05F0914D0584
:102800008081811103C08FEF9FEF11C0E0914C05D3
:10281000F0914D050580F681E02D06811781D801E4
:1028200012968D919C911397E816F90628F49093CF
:102830003205809331052BC06801B2E0CB0ED11C6C
:10284000C60189DEF80184899589892B19F0C801B0
:102850000C9681DED80156969C9180918D05891742
:1028600010F490938D05D99FC0011124B6018759AA
:102870009A4F94DEE0918F05F0919005D80156961D
:102880009C918689981708F4B7CFC1E0B5CFE09145
:102890008F05F0919005E689B9E0EB9FF0011124D6
:1028A000E759FA4F8081823008F0C1E080914105FC
:1028B00006C0809141058F5F80934105C0E0809103
:1028C00044058111C1E08C2FDF91CF911F910F91B1
:1028D000FF90EF90DF90CF9008950F920FB6F8948D
:1028E0000F920BB60F920CB60F921F9211242F92DB
:1028F0003F924F925F926F927F928F929F92AF9290
:10290000BF92CF92DF92EF92FF920F931F932F937C
:102910003F934F935F936F937F938F939F93AF9367
:10292000BF93CF93DF93EF93FF93A0918F05B09167
:1029300090050DB60D920EB60D9201DF882349F079
:1029400080914205882321F081E08093440501C0F5
:102950003ADAA0918F05B0919005CD91CDBFDD9170
:10296000DEBFFF91EF91DF91CF91BF91AF919F912A
:102970008F917F916F915F914F913F912F911F9117
:102980000F91FF90EF90DF90CF90BF90AF909F900E
:102990008F907F906F905F904F903F902F901F90FF
:1029A0000F900CBE0F900BBE0F900FBE0F900895AE
:1029B00094DF1895EF92FF920F931F93CF93DF93BD
:1029C00080914205811102C00E942A020FB6F8943C
:1029D0000F9280914205815080934205809142057B
:1029E000882311F080E04EC0809191058823D1F3B7
:1029F00089E0F82EEE24E39480916005882339F174
:102A0000E0916505F0916605C681D781CE010C96EF
:102A1000A2DD8E010E5F1F4FC8019DDD9E89809152
:102A20008D05891710F490938D05F99EC00111242E
:102A3000B80187599A4FB2DDE0918F05F09190056A
:102A40009E8986899817C0F2E0924405D5CF80917F
:102A50004105811108C080914405813009F0C2CF41
:102A600012DD81E00FC0C1E080914105882399F318
:102A700066DE8111C09344058091410581508093A9
:102A80004105F2CF0F900FBEDF91CF911F910F91B3
:102A9000FF90EF9008950F931F93CF93DF938C01D6
:102AA000EB01892B11F40E942A022097E1F3809117
:102AB00042058111F8CFE1DC40912F05509130059E
:102AC000F80120813181C20FD31F4217530728F428
:102AD000C217D30748F491E004C091E0C217D307AE
:102AE00020F04C175D0708F090E0F801D183C08317
:102AF000992349F080918F059091900502962BDDE6
:102B0000CE010E945E0D56DF811101C0BCDCDF9159
:102B1000CF911F910F910895CF93DF93009741F0CC
:102B2000EC01ABDCCE010E94EA1DDF91CF9142CFD8
:102B3000DF91CF91089580914305882321F19DDC99
:102B4000C091570537DFCC23B1F30FB6F8940F923D
:102B5000E0915C05F0915D05C681D781CE010296BA
:102B6000FADC809191058150809391058091430515
:102B70008150809343050F900FBE8F89988DCCDFD5
:102B8000CE01CADFD8CF809169058230A0F27BDC0C
:102B9000D2CFCF92DF92FF920F931F93CF93DF9309
:102BA0001F92CDB7DEB7F82E162F042F60E080916C
:102BB0003F0679830E94AD0C83E0F2DB8F2DF0DBC2
:102BC000F12EC12E7981D72E8C2D8F19801730F4DC
:102BD00080E0E6DBF60181936F01F6CF61E0809142
:102BE0003F060F90DF91CF911F910F91FF90DF90E3
:102BF000CF900C94AD0C1F93CF93DF93182FCFE29F
:102C0000D6E060E088890E94AD0C83E0C9DB812FAB
:102C1000C7DB80E0C5DB182F61E088890E94AD0C1E
:102C2000812FDF91CF911F910895009769F0FC01EA
:102C300001900020E9F73197AF01481B590BBC0107
:102C400082E995E00C94F30A80E090E00895CF9338
:102C5000DF93EBDFEC018EE493E0E7DF8C0F9D1F49
:102C6000DF91CF910895E1CF1F93CF93DF93CFE210
:102C7000D6E060E088890E94AD0C80EA91DB80E0BC
:102C80008FDB182F61E088890E94AD0C812FDF91C6
:102C9000CF911F9108950F931F93CF93DF9300D08F
:102CA0001F92CDB7DEB7182F10922F061092300664
:102CB00010923106109232061092330644E0BE01A3
:102CC0006F5F7F4F66DF8A819981482F50E065E012
:102CD000559547956A95E1F728E0929F400D511D63
:102CE0001124052E000C660B770B40933006509391
:102CF0003106609332067093330683FF29C092E059
:102D0000440F551F661F771F9A95D1F78370480FA0
:102D1000511D611D711D762F652F542F44278B8106
:102D2000480F511D611D711D762F652F542F4427AB
:102D30008C81480F511D611D711D409330065093C9
:102D40003106609332067093330681E080932F063C
:102D50008FEF810F50DF082F84E0810F4CDF482F69
:102D600003FF04C081E080933D0602C010923D063F
:102D70004F704093340665E376E085E0810F09DF0C
:102D80000F900F900F900F90DF91CF911F910F91A7
:102D90000895EF92FF920F931F93CF93DF931F92AB
:102DA000CDB7DEB7082F162F8FE2E82E86E0F82E7B
:102DB00060E0F701808949830E94AD0C85E0F0DA7C
:102DC000802FEEDA812FECDA4981842FE9DA61E095
:102DD000F70180890F90DF91CF911F910F91FF90A4
:102DE000EF900C94AD0C8F929F92AF92BF920F9385
:102DF0001F93CF93DF93CDB7DEB7A1970FB6F894AB
:102E0000DEBF0FBECDBF19A2423008F44AE08E01EA
:102E10000F5D1F4F842E912CA12CB12CA501940184
:102E20000E946020E62FB901CA0101501109EA3061
:102E300014F4E05D01C0E95CD801EC93232B242B52
:102E4000252B61F7C801F1DEA1960FB6F894DEBF1D
:102E50000FBECDBFDF91CF911F910F91BF90AF906B
:102E60009F908F900895CF93DF93CDB7DEB7C45076
:102E7000D1400FB6F894DEBF0FBECDBF86E593E01C
:102E80009A83898363E873E0CE01039690DAFC01AC
:102E9000108211820296BE016F5F7F4FAC01461B0C
:102EA000570B80E496E00E941B0880E496E00E94A5
:102EB0001008CC5FDE4F0FB6F894DEBF0FBECDBF5B
:102EC000DF91CF910895CF93DF931F921F92CDB7DB
:102ED000DEB780E891E09A83898342E050E0BE014A
:102EE0006F5F7F4F80E496E00E941B0880E496E0CD
:102EF0000E9410080F900F90DF91CF910895CF930B
:102F0000DF931F921F92CDB7DEB781E891E09A83DD
:102F1000898342E050E0BE016F5F7F4F80E496E01E
:102F20000E941B0880E496E00E9410080F900F900A
:102F3000DF91CF910895CF93DF9300D01F92CDB74B
:102F4000DEB720E033E03A8329839C838B8344E01F
:102F500050E0BE016F5F7F4F80E496E00E941B0847
:102F600080E496E00E9410080F900F900F900F9051
:102F7000DF91CF910895EF92FF920F931F93CF931C
:102F8000DF93CDB7DEB7C251D1400FB6F894DEBFA4
:102F90000FBECDBFE1E0F1E0FA83E9839C838B8330
:102FA000CB0163E0880F991F6A95E1F79E838D83BB
:102FB00073E0440F551F7A95E1F758874F831A87BE
:102FC00009873C872B8784E090E09E878D87188A4D
:102FD0001F861A8A198AB701CE014396E8D9BE0125
:102FE0006F5F7F4FAC01461B570B80E496E00E9459
:102FF0001B0880E496E00E941008CE5EDE4F0FB6FC
:10300000F894DEBF0FBECDBFDF91CF911F910F911E
:10301000FF90EF9008956F927F929F92AF92BF9230
:10302000CF92DF92EF92FF920F931F93CF93DF9394
:103030005C01962EC72EEA01D22E892B11F40E9434
:103040002A02822F90E00497D4F7CA010E94090255
:103050003C01892B09F4A2C189E290E00E94090297
:103060007C010097D9F0DC0158967C926E925797BC
:10307000AE0165EA70E0C3010E94AB202197D70141
:103080005796ED91FC915897EC0FFD1FB701675EC5
:103090007F4FA92DBC2DCD01089606C0C3013CDD94
:1030A0007DC1A817B90749F09D014D91EB014993E6
:1030B000BE01E90128812111F4CFD70190961C921D
:1030C0008D2DB3E0BD1508F483E0E7018E8B89A355
:1030D0001AA21B861A861D8A1C8AF986E88624E0B5
:1030E00030E0A901481B51095D874C87FB8AEA8AB9
:1030F0001BA21CA21DA21EA218A61FA291E19083D2
:10310000DF01119782E28C93119723E32C9311979F
:10311000AC921197BC9211971C9211971C92119727
:1031200020E82C9311971C9211971C9211971C92D6
:10313000119722E02C93119723E02C93119724E010
:103140002C93119725E02C93119726E02C9311973F
:1031500027E02C93119728E02C93119729E02C93CA
:10316000119720E12C9311979C93119792E19C93D6
:10317000119793E19C93119794E19C93119795E19A
:103180009C93119796E19C93119797E19C931197CB
:1031900098E19C93119799E19C93119790E29C93ED
:1031A000119791E29C9311978C93119783E28C93E2
:1031B00011971C9211971C92119786E28C9311978C
:1031C00087E28C93119788E28C93119789E28C9314
:1031D000119780E38C93119781E38C93B997F983CE
:1031E000E8830115110519F0F801F182E0820FB6AC
:1031F000F8940F92809191058F5F80939105809153
:103200008F0590919005892B09F091C0F09290055F
:10321000E0928F0580919105813009F097C0E9E631
:10322000F5E04FEF5FEF9F012D5F3F4F328321832A
:103230008FEF9FEF54834383368325833087278323
:103240001082399625E0ED38F20769F72BE637E072
:1032500030936A072093690790936C0780936B07FC
:1032600030936E0720936D073093700720936F079C
:103270001092680722E637E03093610720936007D9
:1032800090936307809362073093650720936407E8
:10329000309367072093660710925F0723E635E0B7
:1032A00030936205209361059093640580936305D4
:1032B0003093660520936505309368052093670574
:1032C000109260052AE535E03093590520935805A2
:1032D00090935B0580935A0530935D0520935C05C0
:1032E00030935F0520935E051092570521E535E088
:1032F0003093500520934F059093520580935105CC
:10330000309354052093530530935605209355056B
:1033100010924E0588E697E090934D0580934C05FA
:103320008FE597E090934B0580934A050FC08091FD
:103330008E0581110BC0E0918F05F0919005868973
:10334000D81620F0F0929005E0928F0580917107D9
:103350008F5F80937107D70156968C9190918D0560
:10336000981710F480938D05B7016E5F7F4FB9E019
:103370008B9FC001112487599A4F10D90F900FBE0F
:1033800080918E05882341F0E0918F05F0919005A2
:1033900086898D1508F477D881E001C08FEFDF9121
:1033A000CF911F910F91FF90EF90DF90CF90BF9042
:1033B000AF909F907F906F900895CF93C82F482F24
:1033C00060EE8FE0E6DC8FE016DC807E91E08C130F
:1033D00001C090E0892FCF9108950F931F93CF9351
:1033E000DF93082F162FCFE2D6E060E088890E9495
:1033F000AD0C82E00E94D011802F0E94D011812F4D
:103400000E94D01161E08889DF91CF911F910F91C7
:103410000C94AD0C1F93CF93DF9300D01F92CDB7C8
:10342000DEB7182F613031F41C821B8288E08A835A
:10343000198204C019821A821C821B8260E080916A
:103440003F060E94AD0C82E00E94D011812F0E94A5
:10345000D01189810E94D0118A810E94D0118B8164
:103460000E94D0118C810E94D01161E080913F06B2
:103470000F900F900F900F90DF91CF911F910C94B0
:10348000AD0CCF93DF93CDB7DEB728970FB6F89486
:10349000DEBF0FBECDBF789484B5826084BD84B595
:1034A000816084BD85B5826085BD85B5816085BD3F
:1034B00080916E00816080936E00109281008091F7
:1034C000810082608093810080918100816080937F
:1034D0008100809180008160809380008091B100A4
:1034E00084608093B1008091B00081608093B000CF
:1034F0008091910082608093910080919100816021
:1035000080939100809190008160809390008091E1
:10351000A10082608093A1008091A10081608093CE
:10352000A1008091A00081608093A0008091210182
:10353000826080932101809121018160809321012B
:103540008091200181608093200180917A008460C5
:1035500080937A0080917A00826080937A008091D3
:103560007A00816080937A0080917A0080688093ED
:103570007A001092C100E091A205F091A30532E01B
:10358000F32EF082E0919E05F0919F051082E0916C
:10359000A005F091A1058FEC80831092AA05E0911F
:1035A000A605F091A70586E08083E091A405F0913F
:1035B000A505808180618083E091A405F091A50537
:1035C000808188608083E091A405F091A5058081C9
:1035D00080688083E091A405F091A50580818F7DAE
:1035E00080830AE315E021E048EC50E067E173E0F6
:1035F0008CE598E010DD08E315E021E048EC50E0B0
:103600006EE173E081E194E006DD84E390E00E94E6
:103610000902FC01009709F4D1C04F969183808381
:103620002AE0238FF48E0FB6F8940F929F012D5C41
:103630003F4F33832283128E9583848342969783F0
:1036400086838FEF858F868FCF010B969287818738
:103650002FEF3FEF3487238796878587908B878767
:1036600010860996938B828B358B248B978B868B58
:10367000918F808F118A0F900FBEF0933405E093E5
:10368000330584E293E0E3DA10922E0510922D05C3
:1036900010922C0510922B051FB7F89480913505D8
:1036A000811127C0E7E1F2E08491E1EDF1E094912E
:1036B000E82FF0E0EE0FFF1FEE57FE4FA591B491FB
:1036C000EC91E92321F461E085E30E94AD0C61E017
:1036D00085E30E94BA0F8CB580618CBD8CB5806487
:1036E0008CBD61E084E30E94BA0F61E083E30E9435
:1036F000BA0F809135058F5F809335051FBF60E05D
:1037000080913F060E94AD0C80EC0E94D01161E0D8
:1037100080913F060E94AD0C6AE070E080E090E08E
:103720000E94F60F80E849DE81114AC060E08AE21B
:1037300054DE60EF89E251DE66E888E24EDE61E049
:1037400080E268DE61E084E265DE61E080E062DE06
:1037500060E084E05FDE61E088E05CDE60E080E104
:1037600059DE61E084E156DE60E088E153DE10E37B
:1037700060E0812F32DE60E080E1810F2EDE60E0CC
:1037800080E2810F2ADE1F5F1E3391F760E080E642
:1037900024DE60E080E721DE63E08BE21EDE44E0B1
:1037A00064E680E6F6DA40E060E680E7F2DA80E0A0
:1037B00004DE882341F004C081110EC10E942A0258
:1037C00081E693E002C084E793E04DDA61E0809106
:1037D00044060E94BA0F60E0809145060E94BA0F2D
:1037E00061E0809144060E94AD0C86E393E02FDAFD
:1037F00061E08BE00E94BA0F62E08CE00E94BA0F99
:1038000061E08DE00E94BA0F60E08DE00E94AD0C97
:1038100060E08BE00E94AD0C61E0809144060E9464
:10382000BA0F60E0809145060E94BA0F61E0809176
:1038300044060E94AD0C61E070E080E090E00E94E0
:10384000F60F80E496E00E9410088231944309F05C
:1038500046C0CC24C394D12C1A82198242E050E095
:10386000BE016F5F7F4F80E496E00E941B0880E4FA
:1038700096E00E9410087C01DA82C98242E050E0A2
:10388000BE016F5F7F4F80E496E00E941B0880E4DA
:1038900096E00E9410088C018AE493E0E4D9B70115
:1038A00080E090E040E19FDA8EE493E0BED981E5CC
:1038B00093E0D9D9B80180E090E040E194DA8EE459
:1038C00093E0B3D98EE493E0B0D9EF2809F0C4CFE8
:1038D0000F371D4109F0C0CF85E593E0B8D9C3DAB1
:1038E0008C01F1DA80E191E09A8389831C830B8358
:1038F0001E821D8218861F8248E050E0BE016F5F65
:103900007F4F80E496E00E941B0880E496E00E94CE
:103910001008F5DA68EB7BE080E090E00E94F60F9B
:103920008DE292E0909307028093060280916900F5
:10393000837F886080936900E99A06E315E020E0C0
:1039400044E650E06CE573E08BE995E164DB81309F
:1039500009F032CFF8942FEF3FEF309332052093E8
:10396000310580938E051092300510922F0587BD8A
:1039700080916E00826080936E00A0918F05B0915F
:103980009005CD91CDBFDD91DEBFFF91EF91DF912D
:10399000CF91BF91AF919F918F917F916F915F91E7
:1039A0004F913F912F911F910F91FF90EF90DF90DA
:1039B000CF90BF90AF909F908F907F906F905F90CF
:1039C0004F903F902F901F900F900CBE0F900BBE0A
:1039D0000F900FBE0F900895FFCFCF92DF92EF921E
:1039E000FF920F931F93CF93E2E9F5E013821282C7
:1039F00088EEC82E83E0D82EE12CF12CC482D5822B
:103A0000E682F7828AE192E09183808385EC90E000
:103A10009587848784EC90E09787868780EC90E098
:103A2000918B808B81EC90E0938B828B82EC90E089
:103A3000958B848B86EC90E0978B868B118E128E03
:103A4000138E148E0FE216E0CAE0F801C08B61E01D
:103A50008AE00E94BA0F61E0F80180890E94AD0CF3
:103A6000E0E4F6E08CE292E091838083C48383E01B
:103A70008583E2E7F7E013821282C482D582E68270
:103A8000F78288E392E09183808310925B07109223
:103A90005C0710925D0710925E07CF911F910F9106
:103AA000FF90EF90DF90CF900895CF93DF93823017
:103AB000910510F482E090E0E0918007F091810799
:103AC00020E030E0C0E0D0E0309711F1408151813A
:103AD00048175907C0F04817590761F4828193814C
:103AE000209719F09B838A832BC090938107809342
:103AF000800726C02115310519F04217530718F425
:103B00009A01BE01DF01EF010280F381E02DDCCFDD
:103B10002115310509F1281B390B2430310590F4AA
:103B200012968D919C9113976115710521F0FB01FF
:103B30009383828304C09093810780938007FD0163
:103B4000329644C0FD01E20FF31F819391932250FE
:103B500031092D933C933AC020917E0730917F0725
:103B6000232B41F4209112023091130230937F07EE
:103B700020937E072091100230911102211531050A
:103B800041F42DB73EB74091140250911502241B09
:103B9000350BE0917E07F0917F07E217F307A0F461
:103BA0002E1B3F0B2817390778F0AC014E5F5F4F93
:103BB0002417350748F04E0F5F1F50937F0740933F
:103BC0007E078193919302C0E0E0F0E0CF01DF91A6
:103BD000CF9108950F931F93CF93DF93009709F42C
:103BE0008CC0FC01329713821282009180071091E1
:103BF00081070115110581F420813181820F931F06
:103C000020917E0730917F072817390779F5F093C7
:103C10007F07E0937E0771C0D80140E050E0AE1707
:103C2000BF0750F412962D913C911397AD012115C9
:103C3000310509F1D901F3CF9D01DA0133832283E4
:103C400060817181860F971F8217930769F4EC01D9
:103C500028813981260F371F2E5F3F4F3183208304
:103C60008A819B8193838283452B29F4F09381077A
:103C7000E093800742C01396FC93EE931297ED01F8
:103C8000499159919E01240F351FE217F30771F4F2
:103C900080819181840F951F029611969C938E933B
:103CA0008281938113969C938E931297E0E0F0E0CB
:103CB000D80112968D919C911397009719F0F801F5
:103CC0008C01F6CF8D919C9198012E5F3F4F820F12
:103CD000931F20917E0730917F072817390769F4D9
:103CE000309729F4109281071092800702C0138246
:103CF000128210937F0700937E07DF91CF911F916F
:103D00000F910895DC016C9161566A3108F0605E94
:103D10006F5B6D93C1F70895BB272A3051F4992347
:103D200042F4BDE290958095709561957F4F8F4FDD
:103D30009F4F01C0BB27FA01A62F621771058105AD
:103D40009105330B30FB66F0AA27660F771F881F9B
:103D5000991FAA1FA21710F0A21B63953850A9F74C
:103D6000A05DAA3308F0A95DA19336F7B111B19314
:103D70001082CA0100C0DC01FC01672F719177231A
:103D8000E1F7329704C07C916D9370836291AE1716
:103D9000BF07C8F308955058BB27AA270ED0E0C02C
:103DA000D1D030F0D6D020F031F49F3F11F41EF482
:103DB000C6C00EF4E095E7FBBCC0E92FE2D080F36B
:103DC000BA17620773078407950718F071F49EF518
:103DD000FAC00EF4E0950B2EBA2FA02D0B01B901FD
:103DE00090010C01CA01A0011124FF27591B99F071
:103DF000593F50F4503E68F11A16F040A22F232F7D
:103E0000342F4427585FF3CF469537952795A795CC
:103E1000F0405395C9F77EF41F16BA0B620B730B73
:103E2000840BBAF09150A1F0FF0FBB1F661F771FE4
:103E3000881FC2F70EC0BA0F621F731F841F48F499
:103E4000879577956795B795F7959E3F08F0B3CF1F
:103E50009395880F08F09927EE0F97958795089509
:103E600098D088F09F5790F0B92F9927B751A0F0BC
:103E7000D1F0660F771F881F991F1AF0BA95C9F7FE
:103E800012C0B13081F09FD0B1E008959CC0672F7F
:103E9000782F8827B85F39F0B93FCCF386957795AE
:103EA0006795B395D9F73EF4909580957095619597
:103EB0007F4F8F4F9F4F0895E89409C097FB3EF4C2
:103EC00090958095709561957F4F8F4F9F4F992367
:103ED000A9F0F92F96E9BB279395F69587957795E5
:103EE0006795B795F111F8CFFAF4BB0F11F460FFA5
:103EF0001BC06F5F7F4F8F4F9F4F16C0882311F0FD
:103F000096E911C0772321F09EE8872F762F05C010
:103F1000662371F096E8862F70E060E02AF09A95AB
:103F2000660F771F881FDAF7880F9695879597F9A0
:103F3000089597F99F6780E870E060E008959FEF2B
:103F400080EC089500240A94161617061806090630
:103F5000089500240A9412161306140605060895FF
:103F6000092E0394000C11F4882352F0BB0F40F487
:103F7000BF2B11F460FF04C06F5F7F4F8F4F9F4FC7
:103F8000089557FD9058440F551F59F05F3F71F049
:103F90004795880F97FB991F61F09F3F79F08795B0
:103FA0000895121613061406551FF2CF4695F1DF39
:103FB00008C0161617061806991FF1CF86957105C9
:103FC000610508940895E894BB2766277727CB01FD
:103FD00097F908950BD0C4CFB5DF28F0BADF18F0F9
:103FE000952309F0A6CFABCF1124EECFCADFA0F303
:103FF000959FD1F3950F50E0551F629FF001729F7E
:10400000BB27F00DB11D639FAA27F00DB11DAA1F9C
:10401000649F6627B00DA11D661F829F2227B00DE9
:10402000A11D621F739FB00DA11D621F839FA00D74
:10403000611D221F749F3327A00D611D231F849FC4
:10404000600D211D822F762F6A2F11249F5750401B
:104050008AF0E1F088234AF0EE0FFF1FBB1F661FB6
:10406000771F881F91505040A9F79E3F510570F06F
:1040700060CFAACF5F3FECF3983EDCF3869577954F
:104080006795B795F795E7959F5FC1F7FE2B880F6A
:10409000911D9695879597F9089597FB072E16F42D
:1040A000009406D077FD08D035D007FC05D03EF44B
:1040B000909581959F4F0895709561957F4F0895D4
:1040C000A1E21A2EAA1BBB1BFD010DC0AA1FBB1F1C
:1040D000EE1FFF1FA217B307E407F50720F0A21B8E
:1040E000B30BE40BF50B661F771F881F991F1A94FB
:1040F00069F760957095809590959B01AC01BD0125
:10410000CF010895EE0FFF1F881F8BBF0790F69118
:10411000E02D1994AA1BBB1B51E107C0AA1FBB1FAE
:10412000A617B70710F0A61BB70B881F991F5A9543
:10413000A9F780959095BC01CD01089581E090E0AC
:10414000F894EFC2FB01DC0102C001900D924150D6
:104150005040D8F70895DC0101C06D9341505040A4
:10416000E0F70895FB01DC0101900D920020E1F7DA
:104170000895FB01DC014150504048F001900D9240
:104180000020C9F701C01D9241505040E0F708954A
:104190000F931F93CF93DF93CDB7DEB72E970FB654
:1041A000F894DEBF0FBECDBF0E891F8986E08C83D9
:1041B0001A8309838FEF9FE79E838D83AE01465E4E
:1041C0005F4F688D798DCE01019611D02F81388592
:1041D000F801E20FF31F10822E960FB6F894DEBF9F
:1041E0000FBECDBFDF91CF911F910F9108952F92F8
:1041F0003F924F925F926F927F928F929F92AF9277
:10420000BF92CF92DF92EF92FF920F931F93CF93C3
:10421000DF93CDB7DEB72C970FB6F894DEBF0FBE95
:10422000CDBF7C016B018A01FC011782168283815C
:1042300081FFB0C1CE0101964C01F7019381F601D7
:1042400093FD859193FF81916F01882309F49EC1AD
:10425000853239F493FD859193FF81916F01853209
:1042600021F4B70190E0C7D1E8CF512C312C20E0E8
:104270002032A0F48B3269F030F4803259F083326E
:1042800069F420612CC08D3239F0803339F421601B
:1042900026C02260246023C0286021C027FD27C0DB
:1042A00030ED380F3A3078F426FF06C0FAE05F9E12
:1042B000300D1124532E13C08AE0389E300D112486
:1042C000332E20620CC08E3221F426FD5FC12064A3
:1042D00006C08C3611F4206802C0883641F4F6011D
:1042E00093FD859193FF81916F018111C1CF982F2B
:1042F0009F7D9554933028F40C5F1F4FFFE3F983A3
:104300000DC0833631F0833771F0833509F057C023
:1043100021C0F801808189830E5F1F4F442443949C
:10432000512C540114C03801F2E06F0E711CF801D9
:10433000A080B18026FF03C0652D70E002C06FEF42
:104340007FEFC5012C874CD12C0183012C852F7761
:10435000222E16C03801F2E06F0E711CF801A08009
:10436000B18026FF03C0652D70E002C06FEF7FEFC4
:10437000C5012C872AD12C012C852068222E83018F
:1043800023FC19C0832D90E048165906A0F4B7010C
:1043900080E290E030D13A94F5CFF50127FC859189
:1043A00027FE81915F01B70190E025D131103A9449
:1043B000F1E04F1A51084114510479F7DEC08436F8
:1043C00011F0893631F5F80127FF07C0608171814E
:1043D000828193810C5F1F4F08C060817181072E1D
:1043E000000C880B990B0E5F1F4F2F76722E97FFD4
:1043F00009C090958095709561957F4F8F4F9F4F25
:104400002068722E2AE030E0A4012DD1A82EA81831
:1044100043C0853729F42F7EB22E2AE030E025C034
:10442000F22FF97FBF2E8F36C1F018F4883579F05E
:10443000ADC0803719F0883721F0A8C02F2F206138
:10444000B22EB4FE0DC08B2D8460B82E09C024FF9F
:104450000AC09F2F9660B92E06C028E030E005C044
:1044600020E130E002C020E132E0F801B7FE07C0F1
:1044700060817181828193810C5F1F4F06C06081D2
:10448000718180E090E00E5F1F4FA401ECD0A82E58
:10449000A818FB2DFF777F2E76FE0BC0372D3E7FB1
:1044A000A51450F474FE0AC072FC08C0372D3E7E7D
:1044B00005C0BA2C372D03C0BA2C01C0B52C34FF6F
:1044C0000DC0FE01EA0DF11D8081803311F4397EAB
:1044D00009C032FF06C0B394B39404C0832F86781A
:1044E00009F0B39433FD12C030FF06C05A2CB31448
:1044F00018F4530C5B18B32CB31460F4B70180E2CA
:1045000090E03C8778D0B3943C85F6CFB31410F498
:104510003B1801C0312C34FF11C0B70180E390E09B
:104520003C8769D03C8532FF16C031FD03C088E767
:1045300090E002C088E590E0B7010CC0832F867838
:1045400051F031FF02C08BE201C080E237FD8DE205
:10455000B70190E050D0A51430F4B70180E390E0AB
:104560004AD05A94F8CFAA94F401EA0DF11D808143
:10457000B70190E040D0A110F6CF332009F45DCE12
:10458000B70180E290E037D03A94F7CFF701868107
:10459000978102C08FEF9FEF2C960FB6F894DEBF85
:1045A0000FBECDBFDF91CF911F910F91FF90EF9084
:1045B000DF90CF90BF90AF909F908F907F906F9043
:1045C0005F904F903F902F900895FC0105906150AF
:1045D00070400110D8F7809590958E0F9F1F089519
:1045E000FC016150704001900110D8F780959095C2
:1045F0008E0F9F1F08950F931F93CF93DF93FB019F
:10460000238121FD03C08FEF9FEF28C022FF16C03A
:1046100046815781248135814217530744F4A08194
:10462000B1819D012F5F3F4F318320838C93268181
:1046300037812F5F3F4F3783268310C0EB01092F4F
:10464000182F0084F185E02D1995892BE1F68E81D4
:104650009F8101969F838E83812F902FDF91CF9131
:104660001F910F910895FA01AA27283051F12031A6
:1046700081F1E8946F936E7F6E5F7F4F8F4F9F4FF6
:10468000AF4FB1E03ED0B4E03CD0670F781F891F38
:104690009A1FA11D680F791F8A1F911DA11D6A0F06
:1046A000711D811D911DA11D20D009F468943F91B9
:1046B0002AE0269F11243019305D3193DEF6CF01B8
:1046C0000895462F4770405D4193B3E00FD0C9F77E
:1046D000F6CF462F4F70405D4A3318F0495D31FDEB
:1046E0004052419302D0A9F7EACFB4E0A69597953E
:1046F000879577956795BA95C9F700976105710514
:1047000008959B01AC010A2E06945795479537955D
:104710002795BA95C9F7620F731F841F951FA01DB7
:064720000895F894FFCF9C
:10472600250D250D250D250D250D250D250D250DF3
:1047360000008207800000000000850BF30A1E0BB4
:10474600CB0B4F0B2D0B410B00000000B20DF20DF1
:10475600570E940D000000009B018701AC01790102
:1047660080017D017A0149443A0050474E3A25308E
:10477600357520503A255820533A255820443A2575
:1047860058200A0D00446174613A20002558200023
:1047960043726F6E6F3A20253032643A25303264A8
:1047A6003A253032640028432920424547415320A8
:1047B6004D4F544F52203230313700256400456E3C
:1047C60067696E65204F696C20286B506129005619
:1047D6006F6C7461676520285629004F696C2054F8
:1047E600582054656D70202843290052504D2028CA
:1047F6006D696E2D3129002D2D2D00456E67696E70
:1048060065204F696C20284C2900456E67696E65E6
:104816002054656D7020284329004163656C6172E0
:1048260061746F722028252900474C50206C6576EC
:10483600656C202825290043414E5F525800416C83
:1048460069766500517565756520437265617465A5
:1048560064204F4B2E005350492042697462616EAA
:104866006720656E61626C65640072303D000D0AFA
:104876000072313D0073796E6365640049444C45AE
:104886000043414E20496E6974204661696C656437
:104896002E0A0D0043414E20496E6974204F4B2E5F
:1048A6000A0D0050696374757265732F42656761FE
:0848B60073322E6A70670000E6
:00000001FF
